8=FIX.4.1|9=112|35=0|49=BRKR|56=INVMGR|34=235|52=19980604-07:58:28|112=19980604-07:58:28|10=157|
8=FIX.4.1|9=154|35=6|49=BRKR|56=INVMGR|34=236|52=19980604-07:58:48|23=115685|28=N|55=SPMI.MI|54=2|27=200000|44=10100.000000|25=H|10=159|
8=FIX.4.1|9=90|35=0|49=INVMGR|56=BRKR|34=236|52=19980604-07:59:30|10=225|
8=FIX.4.1|9=112|35=0|49=BRKR|56=INVMGR|34=237|52=19980604-07:59:48|112=19980604-07:59:48|10=225|
8=FIX.4.1|9=154|35=6|49=BRKR|56=INVMGR|34=238|52=19980604-07:59:56|23=115686|28=N|55=FIA.MI|54=2|27=250000|44=7900.000000|25=H|10=231|
8=FIX.4.1|9=90|35=0|49=INVMGR|56=BRKR|34=237|52=19980604-08:00:31|10=203|
8=FIX.4.1|9=154|35=6|49=BRKR|56=INVMGR|34=239|52=19980604-08:00:36|23=115687|28=N|55=PIRI.MI|54=1|27=300000|44=5950.000000|25=H|10=168|
8=FIX.4.1|9=90|35=0|49=INVMGR|56=BRKR|34=238|52=19980604-08:01:31|10=026|
8=FIX.4.1|9=112|35=0|49=BRKR|56=INVMGR|34=240|52=19980604-08:01:36|112=19980604-08:01:36|10=190|
8=FIX.4.1|9=90|35=0|49=INVMGR|56=BRKR|34=239|52=19980604-08:02:31|10=026|
8=FIX.4.1|9=112|35=0|49=BRKR|56=INVMGR|34=241|52=19980604-08:02:36|112=19980604-08:02:36|10=018|
8=FIX.4.1|9=90|35=0|49=INVMGR|56=BRKR|34=240|52=19980604-08:03:31|10=220|
8=FIXT.1.1|9=116|35=A|49=BuySide|56=SellSide|34=1|52=20190605-11:51:27.848|1128=9|98=0|108=30|141=Y|553=Username|554=Password|1137=9|10=079|
8=FIX.4.4|9=151|35=8|49=foo|56=bar|52=20071123-05:30:00.000|11=OID123456|150=E|39=A|55=XYZ|167=CS|54=1|38=15|40=2|44=15.001|58=EQUITYTESTING|59=0|32=0|31=0|151=15|14=0|6=0|10=128|
8=FIX.4.4|9=315|35=W|49=foo|56=bar|34=1234|52=20190101-01:01:01.000|55=EUR/USD|268=6|269=1|290=1|270=1.21|15=USD|271=1000000|269=1|290=2|270=1.211|15=USD|271=2000000|269=1|290=3|270=1.221|15=USD|271=3000000|269=1|290=4|270=1.2315|15=USD|271=4000000|269=0|290=5|270=1.201|15=USD|271=1000000|269=0|290=6|270=1.205|15=USD|271=2000000|10=173|
